:400000000080002011000000959C0000959C000080B500AF054A054B1B6843F020031360034A044B1B68136009F062FEE8460040BC760040FA46004010B5054C237833B9F6
:40004000044B13B10448AFF300800123237010BD1082FF1F0000000098EF0000084B10B51BB108480849AFF300800848036803B910BD074B002BFBD0BDE81040184700BFFE
:400080000000000098EF00001482FF1F0881FF1F0000000090B583B000AF774B00221A80764B00221A8062B6754B20221A600AF045FC734B10221A600AF022FE0AF09CF95A
:4000C0000AF060FB0BF094F80BF00EFA6C4B02221A606B4B04221A60694B01221A600CF021F8674B08221A600BF068FF654B002283F85920634B002283F85A20614B0022FF
:4001000083F85B20604B002283F859205E4B002283F85A205C4B002283F85B2005200AF09BF80023FB710CE0FC79FB799BB218460BF0DAFF03461A46544B1A55FB79013395
:40014000FB71FB79072BEFD9504B1B78DBB2072B2AD04E4B07221A704C4B38225A704B4B36229A70494B3322DA70484B36221A71464B30225A71454B32229A71434B392290
:40018000DA710023FB710CE0FB79404AD35CDAB2FB799BB2104619460BF016FFFB790133FB71FB79072BEFD9384B5B79DBB29BB203F00F039BB21A465201D21A92001344AD
:4001C0001A4691001A460B4613441B019AB22F4B1B79DBB29BB203F00F039BB219464901C91A89000B44DB009BB213449AB2274B9B78DBB29BB203F00F039BB2194689009C
:400200000B445B0099B2214BDB78DBB29BB203F00F039BB2184680000344184684001846234603449B009BB20B449BB213449AB2164B5B78DBB29BB203F00F039BB21344EB
:400240009AB2134B1A800823FB710EE0FB79A3F10804FB799BB218460BF046FF03461A460C4B1A55FB790133FB71FB790C2BEDD90D23FB711FE000BF4E83FF1FF486FF1F6D
:4002800000E100E07086FF1F7882FF1F5885FF1FDC82FF1F5085FF1FFB79A3F10D04FB799BB218460BF020FF03461A46484B1A55FB790133FB71FB790E2BEDD90F200BF039
:4002C00013FF03461A46434B83F85C2010200BF00BFF03461A463F4B83F8592011200BF003FF03461A463B4B83F85A2012200BF0FBFE03461A46374B83F85B2013200BF09B
:40030000F3FE03461A46344B83F85C2014200BF0EBFE03461A46304B83F8592015200BF0E3FE03461A462C4B83F85A2016200BF0DBFE03461A46284B83F85B2017200BF009
:40034000D3FE03461A46254B1A701E200BF0CCFE03461A46224B5A701F200BF0C5FE03461A461F4B9A7020200BF0BEFE03461A461B4BDA701A200BF0B7FE03461A46154BC9
:400380001A701C200BF0B0FE03461A46124B1A70104B01225A70104B01225A70114B00221A70114B00221A700A4B032283F85C20094B032283F85C20094B00229A70084BEA
:4003C0000322DA70052009F047FF0C37BD4690BD6485FF1F7086FF1F7882FF1F6685FF1FFC82FF1F6E86FF1FCD86FF1F80B582B000AF03460A46FB711346BB80FB79012BED
:4004000015D1BB880120194609F028FA134B64221A70134B01221A70124B01225A700BF0EFFE11480BF066FA0BF02EFB12E0BB880220194609F012FA0C4B64221A700C4BFC
:4004400001225A700B4B01221A700B480BF072FC0BF0FEFB0837BD4680BD00BF7D85FF1F4C85FF1F7086FF1F717500002684FF1F7882FF1FE482FF1FF975000080B582B05C
:4004800000AF0023FB7171E10023FB71BB4B1B78DBB2FF2B04D0BA4B1B78DBB2FF2B58D100BF07F05BF90346002BFAD000BFB34B1B78DAB2B14B93F85C30DBB21046194608
:4004C00008F082F90346002BF1D0322009F0C4FE00BFAB4B1B78DAB2A94B93F85C30DBB21046194608F070F90346002BF1D0322009F0B2FEA14B1B78DBB218461A210BF0F5
:4005000063FD0346002B04D101203C2109F0A6F903E00120552109F0A1F9994B1B78DBB218461C210BF050FD0346002B04D102203C2109F093F903E00220552109F08EF9C0
:40054000904B00221A70904B00221A700223FB710CE18A4B1B78DBB2184607F0B3F80346BB71BB790C2B7BD801A252F823F000BFA505000061060000610600006106000029
:400580006106000061060000AD050000E905000013060000210600003D0600002F0600004B060000754BFF221A7059E0734B1B78DBB2184607F0E0F9322009F04DFE6F4BC4
:4005C0001B78DAB26D4B93F85C30DBB21046194608F0FAF8322009F03FFE6B4B00221A70FB790133FB713BE0644B1B78DAB2634B93F85C30DBB21046194608F0E5F83220CC
:4006000009F02AFE604B00221A70FB790133FB7126E05D4B0B221A70FB790133FB711FE0594B0B221A70FB790133FB7118E0564B0C221A70FB790133FB7111E0524B0C2226
:400640001A70FB790133FB710AE04F4B0B221A700120082109F002F9FB790133FB7100BF474B1B78DBB2184607F02CF80346BB71BB790C2B7AD801A252F823F0B10600007C
:400680006D0700006D0700006D0700006D0700006D070000B9060000F50600001F0700002D070000490700003B07000057070000334BFF221A7059E0314B1B78DBB2184696
:4006C00007F05AF9322009F0C7FD2D4B1B78DAB22B4B93F85C30DBB21046194608F074F8322009F0B9FD274B00221A70FB790133FB713BE0224B1B78DAB2214B93F85C307A
:40070000DBB21046194608F05FF8322009F0A4FD1C4B00221A70FB790133FB7126E0194B0B221A70FB790133FB711FE0154B0B221A70FB790133FB7118E0124B0C221A70A9
:40074000FB790133FB7111E00E4B0C221A70FB790133FB710AE00B4B0B221A700220082109F07CF8FB790133FB7100BFFB79022B7FF48AAE0837BD4680BD00BF7086FF1F2F
:400780007882FF1F2684FF1F7D85FF1F80B586B000AF0AF043F90346052B40F29F850AF03DF903463B820A2009F056FD0AF036F90346FB813A8AFB899A4240F08F85954B38
:4007C0001B78DBB2422B40F08185924B5B78DBB2422B40F07B858F4B9B78DBB2422B40F075858D4B00221A708A4BDB78DBB2312B00F08A84452B00F0F084302B40F0528582
:40080000844B1B79DBB2312B40F03982814B5B79DBB24E2B0BD17F4B1B79DBB203F00F03DBB218461C21FFF7E1FD00F03BBD794B9B7ADBB2462B7ED1784B9B7E5A1E7849F0
:4008400013469B0013440B4448339B78DBB203F00F03DBB23B72714B9B7E5A1E704913469B0013440B4449339B78DBB203F00F03DBB27B72694B9B7E5A1E694913469B005E
:4008800013440B444A339B78DBB203F00F03DBB2BB72624B9B7E5A1E614913469B0013440B444B339B78DBB203F00F03DBB2FB725A4B9B7E5A1E5A4913469B0013440B44A4
:4008C0004C339B78DBB203F00F03DBB23B73544B1B78DBB203F00F03D9B2504B9B7E07F10802084611461A4607F030FE0346002B40F09C804B4B4D221A704A4B55225A7045
:40090000484B58229A70474B4522DA70454B30221A71404B1B79DAB2424B5A71414B31229A71404B2A22DA710823FB823A4B01221A7000F0B7BC3A4B1B78DAB2384B93F8F2
:400940005C30DBB21046194607F03EFF364B1B78DBB2012B11D12F4B5B7ADBB23B722D4B1B7ADBB27B722B4BDB79DBB2BB72294B9B79DBB2FB7200233B732B4B1B78DBB249
:40098000002B13D1234B9B7ADBB23B72214B5B7ADBB27B721F4B1B7ADBB2BB721D4BDB79DBB2FB721B4B9B79DBB23B731C4B1B78DBB203F00F03D9B2184B9B7E07F10802F7
:4009C000084611461A4607F0C1FD0346002B2DD1144B4D221A70134B55225A70114B58229A70104B4522DA700E4B30221A71094B1B79DAB20B4B5A710A4B31229A71094B16
:400A00002A22DA710823FB82034B01221A7000F049BC00BF5889FF1F5083FF1FF886FF1F7086FF1F8484FF1F6685FF1F9C4B5B7CDBB27B709A4B5B7CDBB22C2B06D0984B6A
:400A40005B7CDBB203F00F03DBB27B70944B1B7CDBB2BB70924B1B7CDBB22C2B06D0904B1B7CDBB203F00F03DBB2BB708C4BDB7BDBB2FB708A4BDB7BDBB22C2B06D0884BA0
:400A8000DB7BDBB203F00F03DBB2FB70844B9B7BDBB23B71824B9B7BDBB22C2B06D0804B9B7BDBB203F00F03DBB23B717C4B5B7BDBB27B717A4B5B7BDBB22C2B06D0784BC1
:400AC0005B7BDBB203F00F03DBB27B71744B1B7BDBB2BB71724B1B7BDBB22C2B06D0704B1B7BDBB203F00F03DBB2BB716C4BDB7ADBB2FB716A4BDB7ADBB22C2B06D0684BE2
:400B0000DB7ADBB203F00F03DBB2FB71644B9B7CDBB27B827B8A312B02D102237B8201E001237B825F4B1B78DBB203F00F03D8B25D4B997E7B8ADBB23A4607F0C7F8034604
:400B4000012B7CD1594B1B78002B5CD10023BB820EE0BB8ABA8A53490A4492F84A20D2B207F118010B4403F8102CBB8A0133BB82BB8A042BEDD94B4B1B78DAB207F10803F5
:400B800010461946012207F0E1FC0023BB820EE0BB8ABA8A43490A4492F84F20D2B207F118010B4403F8102CBB8A0133BB82BB8A042BEDD93B4B1B78DAB207F108031046D6
:400BC0001946022207F0C2FC0023BB820EE0BB8ABA8A34490A4492F85420D2B207F118010B4403F8102CBB8A0133BB82BB8A042BEDD92C4B1B78DAB207F1080310461946C4
:400C0000032207F0A3FC0A2009F026FB254B1B78DBB2DBB203F00F03DBB243F01003DBB2DBB2184609F028FD1E4B06225A70204B0B221A700120082108F010FE63E21D4BB0
:400C40004D221A701B4B55225A701A4B58229A70184B4522DA70174B30221A71104B1B79DAB2144B5A71134B32229A71114B2A22DA710823FB82104B01221A7012E3084B4B
:400C80005B79DBB24E2B19D1054B1B79DBB203F00F03DBB218461C21FFF7A8FB02E300BF5889FF1F7086FF1FF886FF1F2C82FF1F7D85FF1F8484FF1F5083FF1F774B9B7A0C
:400CC000DBB2462B7DD1764B9B7E5A1E754913469B0013440B4448339B78DBB203F00F03DBB23B726E4B9B7E5A1E6E4913469B0013440B4449339B78DBB203F00F03DBB25B
:400D00007B72674B9B7E5A1E664913469B0013440B444A339B78DBB203F00F03DBB2BB725F4B9B7E5A1E5F4913469B0013440B444B339B78DBB203F00F03DBB2FB72584B21
:400D40009B7E5A1E574913469B0013440B444C339B78DBB203F00F03DBB23B73514B1B78DBB203F00F03D9B24D4B9B7E07F10802084611461A4607F0E9FB0346002B40F0C6
:400D80009980494B4D221A70474B55225A70464B58229A70444B4522DA70434B30221A713E4B1B79DAB2404B5A713F4B31229A713D4B2A22DA710823FB823C4B01221A7018
:400DC00070E2384B1B78DAB2364B93F85C30DBB21046194607F0F8FC354B1B78DBB2012B11D12E4B5B7ADBB23B722C4B1B7ADBB27B722A4BDB79DBB2BB72284B9B79DBB2E7
:400E0000FB7200233B732A4B1B78DBB2002B13D1224B9B7ADBB23B72204B5B7ADBB27B721E4B1B7ADBB2BB721C4BDB79DBB2FB721A4B9B79DBB23B731A4B1B78DBB203F0C1
:400E40000F03D9B2164B9B7E07F10802084611461A4607F07BFB0346002B2BD1124B4D221A70114B55225A700F4B58229A700E4B4522DA700C4B30221A71084B1B79DAB2F5
:400E8000094B5A71084B31229A71074B2A22DA710823FB82054B01221A7003E25889FF1F8085FF1F7882FF1F8484FF1F5083FF1F6685FF1FAB4B5B7CDBB27B70A94B5B7C85
:400EC000DBB22C2B06D0A74B5B7CDBB203F00F03DBB27B70A34B1B7CDBB2BB70A14B1B7CDBB22C2B06D09F4B1B7CDBB203F00F03DBB2BB709B4BDB7BDBB2FB70994BDB7BB2
:400F0000DBB22C2B06D0974BDB7BDBB203F00F03DBB2FB70934B9B7BDBB23B71914B9B7BDBB22C2B06D08F4B9B7BDBB203F00F03DBB23B718B4B5B7BDBB27B71894B5B7BD2
:400F4000DBB22C2B06D0874B5B7BDBB203F00F03DBB27B71834B1B7BDBB2BB71814B1B7BDBB22C2B06D07F4B1B7BDBB203F00F03DBB2BB717B4BDB7ADBB2FB71794BDB7AF3
:400F8000DBB22C2B06D0774BDB7ADBB203F00F03DBB2FB71734B9B7CDBB27B827B8A312B02D102237B8201E001237B826E4B1B78DBB203F00F03D8B26C4B997E7B8ADBB256
:400FC0003A4606F083FE0346012B7CD1684B1B78002B5CD10023BB820EE0BB8ABA8A62490A4492F84A20D2B207F118010B4403F8102CBB8A0133BB82BB8A042BEDD95A4B26
:401000001B78DAB207F1080310461946012207F09DFA0023BB820EE0BB8ABA8A52490A4492F84F20D2B207F118010B4403F8102CBB8A0133BB82BB8A042BEDD94A4B1B783C
:40104000DAB207F1080310461946022207F07EFA0023BB820EE0BB8ABA8A43490A4492F85420D2B207F118010B4403F8102CBB8A0133BB82BB8A042BEDD93B4B1B78DAB23A
:4010800007F1080310461946032207F05FFA0A2009F0E2F8344B1B78DBB2DBB203F00F03DBB243F01003DBB2DBB2184609F0E4FA2D4B06225A702F4B0B221A7002200821CD
:4010C00008F0CCFB1FE02C4B4D221A702A4B55225A70294B58229A70274B4522DA70264B30221A711F4B1B79DAB2234B5A71224B32229A71204B2A22DA710823FB821F4B00
:4011000001221A70CEE0CDE0164B1B79DBB2312B3AD10120372108F0A1FB194B1B78DBB21A46174B1B78DBB203F00F039A4206D1134B01225A70134B00221A704CE00A4BBD
:401140001B78DBB21A46074B1B79DBB203F00F039A4241D1044B01225A700A4B00221A70A0E000BF5889FF1F7882FF1F8085FF1F2C82FF1F2684FF1F8484FF1F5083FF1F28
:401180007086FF1F7D85FF1F0220372108F066FB544B1B78DBB21A46524B1B78DBB203F00F039A4206D14F4B01225A704E4B00221A7011E04D4B1B78DBB21A464C4B1B7994
:4011C000DBB203F00F039A4206D1484B01225A70454B00221A7065E064E0454B1B79DBB2312B2FD1434B1B78002B5AD1404B5B79DBB2313B032B54D801A252F823F000BF70
:4012000011120000211200003112000041120000364B01225A7001201C21FFF7E7F810E0324B01225A7001200C21FFF7DFF808E02E4B01225A7001205521FFF7D7F800E022
:4012400000BF2EE02C4B1B78002B2AD1284B5B79DBB2313B032B24D801A252F823F000BF711200008112000091120000A11200001C4B01225A7002201C21FFF7B7F810E094
:40128000184B01225A7002200C21FFF7AFF808E0144B01225A7002205521FFF7A7F800E000BF00BF154B1B78012B0FD10023BB8208E0BB8A124AD35C184609F037FCBB8A4D
:4012C0000133BB82BA8AFB8A9A42F2D309F0F0FB09F094F900233B820023FB811837BD4680BD00BF7882FF1F2684FF1F7086FF1F5889FF1F6E86FF1FCD86FF1F5083FF1F75
:401300008484FF1F80B500AF144B5B78DBB2012B14D1134B5B78DBB2012B0FD100200BF019F800200BF034F800200BF04FF801200BF06AF801200BF085F80EE001200BF013
:4013400009F801200BF024F801200BF03FF800200BF05AF800200BF075F880BD7086FF1F7882FF1FB0B590B002AFB04B1B78DBB2662B03F25B8001A252F823F01915000083
:4013800039150000451600002521000097220000712400002D44000087250000092600005B260000952C0000CF2C0000352E0000A7330000F5380000153B00003D3C000034
:4013C0002D3D0000C73D0000154200002D4400002D4400002D4400002D4400002D4400002D4400002D4400002D4400002D4400002D4400002D4400002D4400002D4400006B
:401400002D4400002D4400002D4400002D4400002D4400002D4400002D4400002D4400002D4400002D4400002D4400002D4400002D4400002D4400002D4400002D4400009C
:401440002D4400002D4400002D4400002D4400002D4400002D4400002D4400002D4400002D4400002D4400002D4400002D4400002D4400002D4400002D4400002D4400005C
:401480002D4400002D4400002D4400002D4400002D4400002D4400002D4400002D4400002D4400002D4400002D4400002D4400002D4400002D4400002D4400002D4400001C
:4014C0002D4400002D4400002D4400002D4400002D4400002D4400002D4400002D4400002D4400002D4400002D4400002D4400002D4400002D4400002D4400002D440000DC
:401500002D4400002D4400002D4400000D440000D74300002D44000045480AF0EBF90AF0B3FA444B00221A70404B01221A70424B0A221A7002F07ABF09F0CAFE0346082B4C
:4015400071D13E4B1B78DAB23C4B93F85C30DBB21046194607F038F9322008F07DFE384B4D221A70364B55225A70354B58229A70334B4822DA70324B6F221A71304B6C229E
:401580005A712F4B61229A712D4B2A22DA7109F08FFA002387F837300BE097F83730284AD35C184609F0C2FA97F83730013387F8373097F83730072BEFD9502008F04CFE77
:4015C000002387F837302AE097F837301B4A13449B78DBB2002B10D197F83730174A13449B7EDBB2002B08D197F83730134A134493F83230DBB2002B0CD00AF08DF90AF07D
:4016000053FA0A4B0D221A700120632108F026F909F0A6FE97F83730013387F8373097F837300B2BD0D902F001BF00BF7D85FF1F717500004C85FF1F4C81FF1F7086FF1FAC
:401640008484FF1F09F044FE0346082B40F03E85A04B1B78DBB2AA2B40F036859D4B9B79DBB2C32B40F030859A4BDB79DBB23C2B40F02A85984B00221A70984B1B78DAB2D6
:40168000974B1B78DBB29A4280F0BD80914BDB78DBB2092B32D8914B1B78DBB20133DAB28E4B1A708D4B1B78DBB21A46894BDB78D9B28C4B9954874BDB78DBB23033D9B218
:4016C000894B1B889DB2854B1B78DBB29BB2874A128892B2013292B202FB03F39AB2844B1B889BB213449CB2804B1B889BB2DBB2009301202A46234608F0FCF8754BDB784A
:40170000DBB20A2B3CD17B4B1B78DBB2012B0AD1724B1B78DBB2012B05D1724B5B78DBB2002B00D12CE06D4B1B78DBB20133DAB26A4B1A70694B1B78DBB21A46694B002109
:401740009954694B1B889DB2644B1B78DBB29BB2664A128892B2013292B202FB03F39AB2634B1B889BB213449CB2604B1B889BB2DBB20093012030212A46234608F0BAF883
:40178000544BDB78DBB2512B3DD1544B1B78DBB2002B38D0584B1B78DBB2002B33D14F4B1B78DBB20133DAB24C4B1A704B4B1B78DBB21A46514B1B78D9B24A4B99544F4BB5
:4017C0001B78D9B2484B1B889DB2444B1B78DBB29BB2464A128892B2013292B202FB03F39AB2434B1B889BB213449CB23F4B1B889BB2DBB2009301202A46234608F07AF805
:401800003D4B01221A70334BDB78DBB20B2B40F0B780324B1B78DBB2002B75D1354B1B78DBB2013B072B00F2AB8001A252F823F051180000611800006F1800008518000039
:401840009B180000B118000081190000C11800000120052108F002F8294B04221A7037E0274B00221A70274B01225A7030E00120002107F0F3FF224B00221A70214B0122A5
:401880005A7025E00120002107F0E8FF1C4B00221A701C4B01225A701AE00120002107F0DDFF174B00221A70164B01225A700FE0134B10221A7001205F2107F0CFFF07E011
:4018C0000F4B10221A7001205F2107F0C7FF00BF56E000BF4C8FFF1F4C85FF1F6785FF1F2A84FF1F4C86FF1F0083FF1F2484FF1FCE86FF1FFB82FF1F7582FF1FD582FF1F14
:401900007D85FF1F7086FF1FA74B1B889DB2A74B1B78DBB29BB2A64A128892B2013292B202FB03F39AB2A34B1B889BB213449CB29F4B1B889BB2DBB20093012020212A465D
:40194000234607F0D7FF994B1B78DBB21A469A4B9B5CDAB2994B1B78DBB29A4202D1984B00221A70914B1B78DBB21A46924B002199548E4B1B78DBB2013BDAB28B4B1A70BB
:40198000904BDB78DBB20C2B40F09E838E4B1B78DBB2013B072B00F2978301A252F823F0C1190000271B00009F1B00004F1C0000A91C0000671D0000931D00007B1F00009D
:4019C000002387F837300CE097F8373007F138021344002203F8342C97F83730013387F8373097F83730072BEED9704B1B78DBB2002B00F097806D4B1B78DBB21A466E4BF9
:401A00009B5CDBB22C2B00F08D80012387F8373028E097F83730684AD35CDBB22C2B0FD097F83730013B97F8372063498A5CD2B23032D2B207F138010B4403F8342C0CE047
:401A400097F83730013B97F837205B498A5CD2B207F138010B4403F8342C97F83730013387F83730514B1B78DBB297F837209A42CFD93B1D18460BF037F8C7E90A01534BF6
:401A8000DB7E012B09D1D7E90A014FF00002504B0BF016F80346002B1AD14C4BDB7E022B40D1D7E90A014FF000024A4B0AF0FEFF0346002B00D107E3D7E90A014FF00002B7
:401AC0004FF000030BF006F80346002B00D1FBE2364B1B7887F8373015E097F83730334A1278D2B2114697F837208A1A013232498A5CD1B2354A13440A46DA7697F83730B5
:401B0000013B87F8373097F83730002BE5D1324B05221A70314B02225A700120072107F09DFED1E2D0E2002387F837300BE097F83730264A1344002283F8332097F837303D
:401B4000013387F8373097F837300A2BEFD9174B1B7887F8373016E097F83730134A1278D2B2114697F837208A1A013212498A5CD1B2164A13440A4683F8332097F8373083
:401B8000013B87F8373097F83730002BE4D1124B04221A700120052107F060FE94E2034B1B7887F8373034E00083FF1F6785FF1F2484FF1FCE86FF1F4C86FF1FD582FF1FEB
:401BC0007582FF1F4C8FFF1FFB82FF1FF886FF1F0000894000208C407D85FF1F7086FF1F97F83730B84A1278D2B2114697F837208A1A0132B5498A5CD2B23032D1B2B44A52
:401C000013440A4683F8492097F83730013B87F8373097F83730002BE2D1AE4B02221A700120052107F01AFEA74B00221A70AA4B04221A70A94B0A221A70A94B02221A8091
:401C4000A84B03221A80A84B01221A803CE29E4B1B7887F8373018E097F837309A4A1278D2B2114697F837208A1A013297498A5CD2B23032D1B2964A13440A4683F85420E9
:401C800097F83730013B87F8373097F83730002BE2D1904B66221A700120392107F0DEFD924B10225A700FE2874B1B7887F8373018E097F83730844A1278D2B2114697F839
:401CC00037208A1A013281498A5CD2B23032D1B27F4A13440A4683F8612097F83730013B87F8373097F83730002BE2D1804B1A78774B93F865309A4223D17D4B5A78744BDD
:401D000093F864309A421CD1794B9A78704B93F863309A4215D1764BDA786D4B93F862309A420ED16B4B10221A700120262107F095FDC82008F090FA01205F2107F08EFDB7
:401D4000C2E1644B00221A700120272107F086FD664B01225A70C82008F07EFA0120002107F07CFDB0E1584B1B78DBB21A46574B9B5CDBB218461E210AF026F9554B102278
:401D80001A7001205F2107F069FDC82008F064FA9AE1504B12221A700120732107F05EFD544B1B78013B032B00F2B88001A252F823F000BFC51D00000B1E0000511E000083
:401DC000971E0000414B5B78DBB23033DAB24A4B1A70494B1B78322B08D0332B0BD0312B0ED1424B012283F859200DE03F4B012283F85A2008E03D4B012283F85B2003E0C5
:401E00003E4B00221A7000BF88E0304B5B78DBB23033DAB2384B5A70374B5B78322B08D0332B0BD0312B0ED1304B022283F859200DE02E4B022283F85A2008E02B4B02229D
:401E400083F85B2003E02E4B00221A7000BF65E01E4B5B78DBB23033DAB2274B9A70264B9B78322B08D0332B0BD0312B0ED11F4B032283F859200DE01C4B032283F85A200E
:401E800008E01A4B032283F85B2003E01D4B00221A7000BF42E00D4B5B78DBB23033DAB2154BDA70144BDB78322B08D0332B2BD0312B2ED10D4B042283F859202DE00B4B21
:401EC000042283F85A2028E06785FF1F4C86FF1FF886FF1F7D85FF1FFB82FF1F2A84FF1FCE86FF1F0083FF1F2484FF1F7086FF1F4481FF1F8D87FF1FE082FF1F4881FF1F39
:401F00004981FF1F4A81FF1F9D4B042283F85B2003E09C4B00221A7000BF00BF9A4B1A7801230093012011460B222C2307F0E2FC954B5A78012300930120114610222C237F
:401F400007F0D8FC904B9A78012300930120114614222C2307F0CEFC8B4BDA78012300930120114619222C2307F0C4FC844B01225A70C82008F070F9A6E0012387F8373007
:401F800009E097F83730814A0021D15497F83730013387F8373097F83730042BF1D97B4B04221A707A4B1B7887F8373015E097F83730774A1278D2B2114697F837208A1AE3
:401FC000013274498A5CD2B23032D1B26F4AD15497F83730013B87F8373097F83730002BE5D16A4B5B78DBB22F2B17D9674B9B78DBB22F2B12D8654BDB78DBB22F2B0DD811
:40200000624B1B79DBB22F2B08D8604B30229A705E4B3022DA705D4B30221A715B4B5B78DBB22F2B14D9594B9B78DBB22F2B0FD9564BDB78DBB22F2B0AD8544B1B79DBB277
:402040002F2B05D8514B3022DA70504B30221A714E4B5B78DBB22F2B11D94C4B9B78DBB22F2B0CD9494BDB78DBB22F2B07D9474B1B79DBB22F2B02D8444B30221A7108239A
:4020800087F8373011E097F83730083B3F4AD35CDAB297F837309BB21046194609F094FF97F83730013387F8373097F837300C2BE9D9394B10221A7001205F2107F0CEFBA8
:4020C000C82008F0C9F800BF09F04AF9334B1B78DBB21D2B24D9324B93F84830002B1FD1304B1B78DBB2022B1AD1294B00221A702D4B07221A702D4B04221A802C4B0322F4
:402100001A802C4B01221A8001200A2107F0A6FB214B0D221A70214B00221A7002F086B902F084B9012007F049FC0346012B40F08C800120332107F0A1FC0346002B00F0D5
:402140008480002387F837300FE097F83740012007F01AFD03461A46114B234483F8232097F83730013387F8373097F83730072BEBD9114B00221A70002387F8373032E0E5
:402180007086FF1F4B81FF1FE082FF1F5085FF1F6785FF1F4C86FF1F7D85FF1F4C85FF1FF886FF1FFB82FF1F2A84FF1FCE86FF1F0083FF1F2484FF1F4983FF1FBE4B197845
:4021C00097F83730BD4A134493F823300846194607F034FD03461A46B74B1A7097F83730013387F8373097F83730062BE6D9B34B93F82A20B04B1B789A4226D10120132124
:4022000007F02CFBAE4B00221A70AE4809F072FB09F03AFCAC4B65221A70AC4B02221A80AA4B0E225A80AA4B00221A70A94B02221A70A94B0A221A70A84B02221A80A84B03
:4022400003221A80A74B01221A8009F041F80346082B1ED1A44B1B78DBB2AA2B15D1A24B9B79DBB2C32B10D19F4BDB79DBB23C2B0BD19D4BDB78DBB23B2B06D1924B00221A
:402280001A709A4B01225A7000BF09F069F802F0CDB802F0CBB809F01BF80346082B40F0E580914B1B78DBB2AA2B40F0DB808E4B9B79DBB2C32B40F0D5808B4BDB79DBB2A0
:4022C0003C2B40F0CF80884BDB78DBB2102B4BD0102B02DC0F2B07D0C4E03B2B00F0B880432B00F08180BDE0002387F837300AE097F83730714A13440022DA7697F8373034
:40230000013387F8373097F83730072BF0D96E4B02221A706E4B00221A706E4B01221A70734B2C221A70734B5B78DAB26A4B1A70624B0122DA76704B00221A70012006219F
:4023400007F08CFA654B04221A80654B03221A80644B01221A8001230093012024210322042307F0C7FA7DE0002387F837300AE097F83730514A13440022DA7697F83730D4
:40238000013387F8373097F83730072BF0D94E4B02221A704E4B00221A704E4B01221A70534B2C221A70534B5B78DAB24A4B1A70424B0222DA76504B00221A7001200D2117
:4023C00007F04CFA454B04221A80454B03221A80444B01221A8001230093012047210322042307F087FA3DE0002387F837300AE097F83730314A13440022DA7697F8373071
:40240000013387F8373097F83730072BF0D92B4B0322DA76052387F837300AE097F83730264A13440922DA7697F83730013387F8373097F83730072BF0D9234B07221A7054
:402440000120072107F00AFA284B02225A7009E01D4B00221A70294B00221A70234B01225A7000BF08F07CFF01F0E0BF01F0DEBF322007F0F1FE08F02BFF0346082B3FD109
:40248000194B1B78DBB2AA2B11D1174B9B79DBB2C32B0CD1144BDB79DBB23C2B07D1124BDB78DBB27E2B02D1074B00221A7008F057FF01F0BBBF00BF4983FF1FF886FF1FDF
:4024C0004C85FF1F717500007D85FF1F8487FF1F6785FF1FFB82FF1F2A84FF1FCE86FF1F0083FF1F2484FF1F4C8FFF1F7086FF1FD582FF1FFC82FF1F7582FF1FFC85FF1FA2
:40250000604B1B78DBB2184605F0DCF8034687F8373097F83730072B06D15B4B07221A70322007F099FE2CE097F83730002B0ED1322007F091FE534B1B78DAB207F11C038A
:40254000104601211A46022305F0C0FB19E097F837300C2B04D101205521FDF747FF10E097F837300B2B03D1474B0C221A7008E097F837300A2B04D1434B0C221A7001F089
:4025800055BF01F053BF0A2007F066FE08F0A0FE0346082B20D13D4B1B78DBB2AA2B17D13A4B9B79DBB2C32B12D1384BDB79DBB23C2B0DD1354BDB78DBB27E2B08D1324B18
:4025C00000221A702F4B01225A70314B00221A7008F0C6FE01F02ABF2A4B1B78DBB2184605F00CF903461A462A4B9A76294B9B7E002B07D0244B08221A700A2007F02CFEF2
:4026000001F014BF01F012BF0A2007F025FE1D4B1B78DBB2184605F055F80346072B1AD10120392107F01AF909F076F909F03CFA154B09221A70184B00221A80114B042270
:402640005A70164B00221A70154809F053F909F01BFA01F0EBBE01F0E9BE0D4B1B78012B00F05C820F4B4D221A700E4B55225A700C4B58229A700B4B3022DA70002387F860
:4026800037304CE07086FF1F7D85FF1F4C8FFF1FFC85FF1FF886FF1F4E83FF1F4C85FF1F717500008484FF1F97F837305B08DBB21A46B44B134493F823301B0987F83630B2
:4026C00097F8373003F00103DBB2002B0CD197F837305B08DBB21A46AA4B134493F8233003F00F0387F8363097F83730043397F836203032D1B2A44AD15497F83630092BCB
:4027000008D997F83730043397F836203732D1B29D4AD15497F83730013387F8373097F837300F2BC0D9974B9B7E013B974A134493F85930DBB23033DAB2934B1A75944B8A
:402740001B79DAB2904B5A75914BDB78DAB28E4B9A758F4B9B78DAB28B4BDA758C4B5B78DAB2894B1A768B4B1B78DBB2002B59D1844B9B7E5A1E854913469B0013440B44A1
:402780004C339B78DBB203F00F03DBB23033DAB27D4B5A767B4B9B7E5A1E7C4913469B0013440B444B339B78DBB203F00F03DBB23033DAB2744B9A76724B9B7E5A1E7349B3
:4027C00013469B0013440B444A339B78DBB203F00F03DBB23033DAB26B4BDA76694B9B7E5A1E6A4913469B0013440B4449339B78DBB203F00F03DBB23033DAB2624B1A772E
:40280000604B9B7E5A1E614913469B0013440B4448339B78DBB203F00F03DBB23033DAB2594B5A775B4B1B78DBB2012B4AD1554B9B7E5A1E554913469B0013440B444B3313
:402840009B78DBB203F00F03DBB23033DAB24E4B5A764C4B9B7E5A1E4C4913469B0013440B444A339B78DBB203F00F03DBB23033DAB2454B9A76434B9B7E5A1E4349134635
:402880009B0013440B4449339B78DBB203F00F03DBB23033DAB23C4BDA763A4B9B7E5A1E3A4913469B0013440B4448339B78DBB203F00F03DBB23033DAB2334B1A77324B08
:4028C00030225A772F4BDB7E3033DAB22E4B9A772C4B93F822202C4BDA772A4B93F82230092B06D8274B93F822303033DAB2264BDA77244B93F82120234B83F82020214B29
:4029000093F82130092B07D81E4B93F821303033DAB21D4B83F820201A4B93F820201A4B83F82120174B93F82030092B07D8154B93F820303033DAB2134B83F82120114B10
:40294000DA7F114B83F822200E4BDB7F092B06D80C4BDB7F3033DAB20B4B83F82220094B9A7F094B83F82320064B9B7F092B06D8044B9B7F3033DAB2034B83F82320014BC1
:402980005A7F09E0F886FF1F8484FF1F7086FF1F5085FF1F6685FF1FB44B83F82420B44B5B7F092B06D8B24B5B7F3033DAB2AF4B83F82420AE4B1A7FAC4B83F82520AC4B1B
:4029C0001B7F092B06D8AA4B1B7F3033DAB2A74B83F82520002387F8373012E097F83730263397F837200132A1490A4492F833203032D1B29D4AD15497F83730013387F8E9
:402A0000373097F83730062BE8D9984B312283F82D20964B2A2283F82E2008F049F8002387F837300BE097F83730904AD35C184608F07CF897F83730013387F8373097F8BE
:402A400037302E2BEFD9FA2007F006FC07F0E6FF0346022B1DD1874B1B78DBB24F2B18D1844B5B78DBB24B2B13D1834B02221A80824B02225A70824B0A221A7008F04CFF90
:402A800009F012F87F4B00221A7008F011F801F0CDBC7C4B1B78DBB20F2B0CD908F03CFF09F002F8774B00221A70754B00221A70724B01225A7008F00BFC0346082B40F0C7
:402AC000D380714B1B78DBB2AA2B20D16E4B9B79DBB2C32B1BD16C4BDB79DBB23C2B16D1694BDB78DBB27E2B11D10120002106F0B5FE08F011FF08F0D7FF624B00221A708E
:402B00005F4B00221A705D4B01225A7000BF642007F0A2FB08F024FC01F088BC544BDB7E022B07D0032B09D0012B43D1022387F834303FE0012387F834303BE0022387F856
:402B40003430524B5B78DBB2072B1BD1484B0722DA76474B00221A77454B00225A77444B00229A77424B0922DA77414B092283F820203F4B092283F821203D4B092283F826
:402B8000222016E03A4B0622DA76394B00221A77374B00225A77364B00229A77344B0922DA77334B092283F82020314B092283F8212000BF012387F8373019E097F8373006
:402BC0002B4A1344DB7E2C2B0DD097F8373097F8372027490A44D27E02F00F02D1B2244A13440A46DA7697F83730013387F8373097F83730082BE1D9204B1B78DBB203F036
:402C00000F03D9B21A4B9A7E97F83430084611461F4A05F05BF80346012B1AD1322007F01BFB164B1B78DBB2DBB203F00F03DBB243F01003DBB2DBB2184607F01DFD0F4BA9
:402C400006225A700E4B0B221A700120082106F005FE08F061FE08F027FF0A4B00221A7007F026FF01F0E2BB01F0E0BB8484FF1FF886FF1F5889FF1F4E83FF1F7086FF1F9F
:402C80007D85FF1F4C85FF1F4C8FFF1FFC82FF1F1387FF1FA04B1B88012B16D99E4B1B8801339AB29C4B1A80012007F0D5FA9A4B1B8844F61F62934207D9974B00221A8005
:402CC000964B09221A7001F0B1BB01F0AFBB944B01221A70322007F0BFFA924B1B78DBB2184604F0EFFC03460A2B3DD00B2B03D0062B71D001F09ABB642007F0ADFA00232D
:402D000087F8373010E097F83730874A13440022DA7197F83730844A134400221A7497F83730013387F8373097F83730082BEAD97C4B1B78DBB2184604F01EFE0346012BA1
:402D400006D1764B0C221A700120392106F086FD744B1B78DAB2734B93F85C30DBB21046194605F031FD63E0642007F075FA002387F8373010E097F837306B4A13440022AD
:402D8000DA7197F83730684A134400221A7497F83730013387F8373097F83730082BEAD9604B1B78DBB2184604F0E6FD0346012B06D15A4B0C221A700120392106F04EFDB8
:402DC000584B1B78DAB2574B93F85C30DBB21046194605F0F9FC2BE0002387F8373010E097F83730504A13440022DA7197F837304D4A134400221A7497F83730013387F897
:402E0000373097F83730082BEAD9444B0C221A700120392106F022FD424B1B78DAB2414B93F85C30DBB21046194605F0CDFC00BF01F0FCBA3D4B4D221A703C4B55225A706A
:402E40003A4B58229A70394B3122DA70374B31221A71354B5B7E013B324A134493F85930DBB23033DAB2314B5A712F4B5B7D3033DAB22E4B9A712C4B1B7D3033DAB22B4B50
:402E8000DA71294BDB7C3033DAB2284B1A72274B2C225A72244B9B7C3033DAB2234B9A72214B5B7C3033DAB2204BDA721E4B1B7C3033DAB21D4B1A731D4B5B78DBB2072BCC
:402EC00038D1194B9B7B3033DAB2184B5A73164B5B7B3033DAB2154B9A73134B1B7B3033DAB2124BDA73104BDB7A3033DAB20F4B1A740D4B9B7A3033DAB20C4B5A740A4BB3
:402F00005B7A3033DAB2094B9A74074B1B7A3033DAB2064BDA7437E04E83FF1F7D85FF1F6E86FF1F7086FF1FF886FF1F8484FF1FFC82FF1F424B5B7B3033DAB2414B5A73A1
:402F40003F4B1B7B3033DAB23E4B9A733C4BDB7A3033DAB23B4BDA73394B9B7A3033DAB2384B1A74364B5B7A3033DAB2354B5A74334B1B7A3033DAB2324B9A74304BDB7986
:402F80003033DAB22F4BDA742F4B1B78DBB2002B1DD12B4B9B793033DAB22A4B1A75284B5B793033DAB2274B5A75254B1B793033DAB2244B9A75224BDB783033DAB2214B27
:402FC000DA751F4B9B783033DAB21E4B1A761E4B1B78DBB2012B1AD1194B5B793033DAB2184B1A75164B1B793033DAB2154B5A75134BDB783033DAB2124B9A75104B9B78D7
:403000003033DAB20F4BDA750E4B30221A760F4B1B79DAB20B4B5A760C4BDB78DAB2094B9A760A4B9B78DAB2064BDA76074B5B78DAB2044B1A77002387F8373043E000BF72
:40304000F886FF1F8484FF1F6685FF1F5085FF1F97F837305B08DBB21A46974B134493F823301B0987F8363097F8373003F00103DBB2002B0CD197F837305B08DBB21A4664
:403080008D4B134493F8233003F00F0387F8363097F837301D3397F836203032D1B2874AD15497F83630092B08D997F837301D3397F836203732D1B2804AD15497F837300D
:4030C000013387F8373097F837300F2BC0D97C4B1B8801339AB27A4B1A80794B1B88794AA2FB03235B0B9BB2DBB23033DAB2764B5A71734B1B88734AA2FB0312520B42F29B
:40310000107101FB02F29B1A9BB2704AA2FB03239B099BB2DBB23033DAB26B4B1A71684B1B88684AA2FB0312520B42F2107101FB02F29B1A9BB2654AA2FB031292094FF4F4
:403140007A7101FB02F29B1A9BB2614AA2FB03235B099BB2DBB23033DAB25B4BDA70584B1B88584AA2FB0312520B42F2107101FB02F29B1A9BB2554AA2FB031292094FF41A
:403180007A7101FB02F29B1A9BB2514AA2FB03125209642101FB02F29B1A9BB24D4AA2FB0323DB089BB2DBB23033DAB2464B9A70434B1B88434AA2FB0312520B42F21071F0
:4031C00001FB02F29B1A9BB2404AA2FB031292094FF47A7101FB02F29B1A9BB23C4AA2FB03125209642101FB02F29B1A9AB2394BA3FB0213D9080B469B000B445B00D31A42
:403200009BB2DBB23033DAB22F4B5A70012387F837300EE097F837302C3397F837202A498A5CD1B2254AD15497F83730013387F8373097F83730072BECD9012387F83730D7
:4032400010E097F83730204AD35CDAB297F837309BB21046194608F0B7FE97F83730013387F8373097F83730052BEAD9002387F8373012E097F83730343397F83720013234
:403280000D490A4492F833203032D1B20B4AD15497F83730013387F8373097F83730062BE8D9064B2A2283F83B2007F001FC002387F837301CE000BFF886FF1F8484FF1F49
:4032C000DC82FF1F5917B7D15885FF1FD34D62101F85EB51CDCCCCCC97F83730BB4AD35C184607F023FC97F83730013387F8373097F837303B2BEFD94FF4FA6006F0ACFFAC
:40330000B34B02225A70B34B66221A70B24B00221A70AF4B01225A700120002106F09EFAAC4B00221A7007F0C3FBAC4B5B7E5A1EA74913469B0013440B4448339B78DBB2EC
:403340003B75A64B5B7E5A1EA14913469B0013440B4449339B78DBB27B75A04B5B7E5A1E9B4913469B0013440B444A339B78DBB2BB759A4B5B7E5A1E954913469B00134465
:403380000B444B339B78DBB2FB75944B5B7E5A1E8F4913469B0013440B444C339B78DBB23B7601F043B8182387F83630002387F8373018E097F83730894AD25C97F83630C5
:4033C0009CB201230093012011460122234606F091FA97F83630023387F8363097F83730013387F8373097F837300C2BE2D9002387F8363007F06CFF0346082B40F0708234
:40340000784B1B78DBB2AA2B40F06382754B9B79DBB2C32B40F05D82724BDB79DBB23C2B40F05782704B0A221A706E4BDB78DBB2592B00F02F81592B03DC452B00F02281BF
:4034400047E25C2B03D07E2B00F03B8241E2604B02225A70654B00221A705C4B4D221A705A4B55225A70594B58229A70574B3522DA70042387F83530002387F8373018E05E
:4034800097F8353097F8372051490A449278D2B202F00F02D2B23032D1B24C4AD15497F83530013387F8353097F83730013387F8373097F837300B2BE2D90C2387F837307D
:4034C00018E097F8353097F8372041490A449278D2B202F00F02D2B23032D1B23B4AD15497F83530013387F8353097F83730013387F8373097F83730172BE2D9002387F8CD
:40350000373018E097F8353097F8372030490A44927ED2B202F00F02D2B23032D1B22B4AD15497F83530013387F8353097F83730013387F8373097F837300B2BE2D90C23BF
:4035400087F8373018E097F8353097F8372020490A44927ED2B202F00F02D2B23032D1B21A4AD15497F83530013387F8353097F83730013387F8373097F83730172BE2D944
:40358000002387F8373019E097F8353097F837200F490A4492F83220D2B202F00F02D2B23032D1B2094AD15497F83530013387F8353097F83730013387F8373097F8373033
:4035C0000B2BE1D90C2387F837302BE08484FF1F7086FF1F7D85FF1F6E86FF1FF886FF1F5081FF1F4C8FFF1F4C81FF1FFC85FF1F97F8353097F83720BA490A4492F832203A
:40360000D2B202F00F02D2B23032D1B2B64AD15497F83530013387F8353097F83730013387F8373097F83730172BE1D9AE4B312283F84B20AC4B2A2283F84C2007F038FAE2
:40364000002387F837300BE097F83730A64AD35C184607F06BFA97F83730013387F8373097F837304C2BEFD9FA2006F0F5FD9F4B13221A700120492106F0F0F89C4B0A221B
:403680001A7026E10120722106F0E8F8974B0F221A701EE10120392106F0E0F8924B4D221A70914B55225A708F4B58229A708E4B3222DA708B4B1B78DAB28A4B93F85C3061
:4036C000DBB21046194605F07FF8322006F0C4FD042387F83530002387F8373018E097F8353097F837207F490A449278D2B202F00F02D2B23032D1B27B4AD15497F835303F
:40370000013387F8353097F83730013387F8373097F837300B2BE2D90C2387F8373018E097F8353097F837206E490A449278D2B202F00F02D2B23032D1B26B4AD15497F82B
:403740003530013387F8353097F83730013387F8373097F83730172BE2D9002387F8373018E097F8353097F837205E490A44927ED2B202F00F02D2B23032D1B25A4AD15430
:4037800097F83530013387F8353097F83730013387F8373097F837300B2BE2D90C2387F8373018E097F8353097F837204D490A44927ED2B202F00F02D2B23032D1B24A4AA7
:4037C000D15497F83530013387F8353097F83730013387F8373097F83730172BE2D9002387F8373019E097F8353097F837203D490A4492F83220D2B202F00F02D2B230329C
:40380000D1B2394AD15497F83530013387F8353097F83730013387F8373097F837300B2BE1D90C2387F8373019E097F8353097F837202C490A4492F83220D2B202F00F024D
:40384000D2B23032D1B2284AD15497F83530013387F8353097F83730013387F8373097F83730172BE1D9204B312283F84B201E4B2A2283F84C2007F01BF9002387F83730E6
:403880000BE097F83730184AD35C184607F04EF997F83730013387F8373097F837304C2BEFD9FA2006F0D8FC0120002105F0D6FF0E4B00221A700B4B01225A7007F0F8F896
:4038C00007E00120002105F0C9FF084B00221A7000BF642006F0C0FC07F042FD00F0A6BD00F0A4BD7086FF1F8484FF1F7D85FF1F4C81FF1F07F0ECFC0346082B40F00881BB
:40390000B04B1B78DBB2AA2B40F0FE80AD4B9B79DBB2C32B40F0F880AA4BDB79DBB23C2B40F0F280A84B1B78DAB2A84B1B78DBB29A426CD2A34BDB78DBB2092B33D8A24BA2
:403940001B78DBB201339F4AD278D2B23032D1B29F4A13440A4683F854209E4B1B889DB2994B1B78DBB29BB29B4A128892B2013292B202FB03F39AB2984B1B889BB2134409
:403980009CB2954B1B889BB2DBB2009301202A212A46234605F0AEFF8B4B1B78DBB20133DAB2894B1A70874BDB78DBB20A2B2ED1854B1B78DBB20133854A1344302283F8D1
:4039C0005420844B1B889DB27F4B1B78DBB29BB2814A128892B2013292B202FB03F39AB27E4B1B889BB213449CB27B4B1B889BB2DBB2009301202A212A46234605F07AFF15
:403A0000714B1B78DBB20133DAB26F4B1A706D4BDB78DBB20B2B2ED16C4B1B78DBB2002B03D16F4B00221A7025E0674B1B78DBB2013BDAB2644B1A70664B1B889DB2624B75
:403A40001B78DBB29BB2644A128892B2013292B202FB03F39AB2614B1B889BB213449CB25D4B1B889BB2DBB20093012020212A46234605F03FFF534BDB78DBB20C2B43D167
:403A8000514B1B78DBB2002B3ED04F4B1B78DAB24F4B83F85420002387F836304C4B93F85430042B2DD1012387F8373015E097F83730474A134493F8542097F83730494990
:403AC000CB5C9A4204D197F83630013387F8363097F83730013387F8373097F83730042BE5D997F83630042B07D13D4B0F221A7001205D2105F0B2FE06E0394B00221A7054
:403B000002E0374B00221A7007F02AFC00F08EBC00F08CBC07F0DCFB0346082B40F08D80284B1B78DBB2AA2B40F08780254B9B79DBB2C32B40F08180224BDB79DBB23C2BDB
:403B40007BD1204BDB78DBB2B92B05D0BA2B4FD07E2B6AD000F06ABC234B4D221A70224B55225A70204B58229A701F4B3322DA701D4B31221A711C4B2A225A7106F098FF9A
:403B8000002387F837300BE097F83730164AD35C184606F0CBFF97F83730013387F8373097F83730052BEFD9962006F055FB0120002105F053FE0A4B00221A700B4B012272
:403BC0005A703AE04C8FFF1F6785FF1F2A84FF1FF886FF1F0083FF1F2484FF1FCE86FF1F7D85FF1F2881FF1F8484FF1F7086FF1FAA4B02221A700120252105F02FFEA84B5D
:403C000005221A70A74B00221A70A74B2C221A70A64B04221A70A64B04221A80A54B03221A80A54B01221A8007E00120002105F015FE9A4B00221A7000BFF7E307F048FB28
:403C40000346082B71D19D4B1B78DBB2AA2B6CD19A4B9B79DBB2C32B67D1984BDB79DBB23C2B62D1954BDB78DBB2802B13D0802B04DC7E2B51D07F2B05D0D7E3812B27D0E3
:403C8000C22B2DD0D2E3854B12221A700120732105F0E4FD49E0814B02221A700120642105F0DCFD7E4B06221A707E4B00221A707D4B2C221A707D4B01221A707C4B042243
:403CC0001A807C4B03221A807B4B01221A802CE0724B11221A7001206D2105F0BFFD24E06E4B02221A700120842105F0B7FD6C4B08221A706B4B00221A706B4B2C221A7006
:403D00006A4B04221A706A4B04221A80694B03221A80694B01221A8007E00120002105F09DFD5E4B00221A7000BF7FE307F0D0FA0346082B46D1614B1B78DBB2AA2B41D190
:403D40005E4B9B79DBB2C32B3CD15C4BDB79DBB23C2B37D1594BDB78DBB28F2B04D0902B15D07E2B26D061E30020172108F02CF901203C2105F072FDC82006F06DFA474B44
:403D800010221A7001205F2105F068FD1AE00120172108F019F901203C2105F05FFDC82006F05AFA3D4B10221A7001205F2105F055FD07E0394B10221A7001205F2105F005
:403DC0004DFD00BF32E307F083FA0346082B40F001823A4B1B78DBB2AA2B40F0FB81374B9B79DBB2C32B40F0F581344BDB79DBB23C2B40F0EF81314BDB78DBB2BC2B2CD07F
:403E0000BC2B05DC7E2B00F09D80BB2B05D00DE3BD2B57D0BE2B75D008E3294B01221A701E4B02221A700120842105F017FD1C4B07221A701B4B00221A701B4B2C221A70C0
:403E40001A4B01221A701A4B04221A80194B03221A80194B01221A80BCE1194B02221A700E4B02221A700120842105F0F7FC0C4B07221A700B4B00221A700B4B2C221A7029
:403E80000A4B01221A700A4B04221A80094B03221A80094B01221A809CE100BF7D85FF1FFB82FF1F6785FF1FD582FF1F2A84FF1FCE86FF1F0083FF1F2484FF1F4C8FFF1FB3
:403EC0008D87FF1FC44B03221A70C44B02221A700120842105F0C2FCC14B07221A70C14B00221A70C04B2C221A70C04B01221A70BF4B04221A80BF4B03221A80BE4B0122CB
:403F00001A8067E1B44B04221A70B44B02221A700120842105F0A2FCB14B07221A70B14B00221A70B04B2C221A70B04B01221A70AF4B04221A80AF4B03221A80AE4B012289
:403F40001A8047E1AD4B4D221A70AC4B55225A70AA4B58229A70A94B3422DA70042387F83630002387F837303CE097F83730A44A134493F85930DBB2013B032B22D801A235
:403F800052F823F0953F0000A13F0000AD3F0000B93F000097F83630984A4421D15417E097F83630954A4321D15411E097F83630924A4521D1540BE097F836308F4A5321DD
:403FC000D15405E097F836308C4A3021D15400BF97F83630013387F8363097F83730013387F8373097F83730022BBED9854B1B78002B26D1002387F83630042387F8373045
:404000001BE097F837307D4AD35C442B0BD197F837307A4A3021D15497F83630784A1344002283F8592097F83630013387F8363097F83730013387F8373097F83730062BB5
:40404000DFD9714B1B78002B26D1002387F83630042387F837301BE097F83730674AD35C432B0BD197F83730644A3021D15497F83630634A1344002283F8592097F83630C9
:40408000013387F8363097F83730013387F8373097F83730062BDFD95C4B1B78002B26D1002387F83630042387F837301BE097F83730524AD35C452B0BD197F837304F4AF0
:4040C0003021D15497F836304D4A1344002283F8592097F83630013387F8363097F83730013387F8373097F83730062BDFD9484B1B78002B26D1002387F83630042387F85E
:4041000037301BE097F837303C4AD35C532B0BD197F83730394A3021D15497F83630384A1344002283F8592097F83630013387F8363097F83730013387F8373097F8373031
:40414000062BDFD92D4B3122DA712C4B2A221A7206F0AEFC002387F837300BE097F83730264AD35C184606F0E1FC97F83730013387F8373097F83730082BEFD9214B012207
:404180001A70224B01221A701F4B01221A70204B01221A701A4B93F85930DBB21846102107F012FF164B93F85A30DBB21846112107F00AFF124B93F85B30DBB2184612216B
:4041C00007F002FF054B10221A7001205F2105F045FB00BF2AE100BF8D87FF1F7D85FF1FFB82FF1F6785FF1FD582FF1F2A84FF1FCE86FF1F0083FF1F2484FF1F8484FF1F25
:404200007086FF1F4881FF1F4981FF1F4A81FF1F4B81FF1F07F05CF80346082B40F0DA80844B1B78DBB2AA2B40F0CE80814B9B79DBB2C32B40F0C8807E4BDB79DBB23C2B51
:4042400040F0C2807B4BDB78DBB25F2B40D05F2B02DC5E2B07D0B7E07E2B00F09F80942B00F0A780B0E0744B0C221A70734B1B78152B0CD0162B1AD0142B00D027E0704B2F
:4042800003221A700120122105F0E8FA1FE001207D2105F0E3FA4FF4FA6005F0DDFF684B00221A700120002105F0D8FA0FE001207D2105F0D3FA4FF4FA6005F0CDFF604B45
:4042C00000221A700120002105F0C8FA00BF7BE0594B0B221A70002387F837300BE097F83730584A1344002283F8232097F83730013387F8373097F837300F2BEFD90023B6
:4043000087F837300BE097F837304E4A1344002283F8332097F83730013387F8373097F837300A2BEFD9454B1B78152B17D0162B28D0142B00D030E001207C2105F08EFAF7
:404340004FF4FA6005F088FF3D4B00221A700120002105F083FA3C4B01225A701DE001207D2105F07BFA4FF4FA6005F075FF344B00221A700120002105F070FA324B012230
:404380005A700AE02E4B04221A700120052105F065FA2E4B01221A7000BF15E02A4B01225A70274B00221A700120002105F056FA0AE0254B01225A70214B00221A70012024
:4043C000002105F04BFA00BF642005F045FF06F0C7FF2BE02AE01E4B1B78DBB2012B14D907F09AFA07F060FB1A4B1B889BB2DAB2134B1A70174B5B889BB20120194605F0C6
:404400002DFA134B00221A7010E00FE0104B1B78DBB2032B09D90A4B00221A7007F07CFA07F042FB0A4B00221A7000BF3837BD46B0BD00BF4C8FFF1F4C81FF1F4D81FF1F11
:404440007D85FF1FF886FF1F7086FF1FFC85FF1F4C85FF1F8487FF1FB0B58EB002AFB04B1B78DBB2662B03F26D8001A252F823F00D4600002D460000394700002B52000010
:404480009F53000079550000457500008F56000011570000635700009D5D0000D75D00003D5F0000C76400000D6A00002D6C0000556D0000456E0000DF6E00002D73000014
:4044C000457500004575000045750000457500004575000045750000457500004575000045750000457500004575000045750000457500004575000045750000457500001C
:4045000045750000457500004575000045750000457500004575000045750000457500004575000045750000457500004575000045750000457500004575000045750000DB
:40454000457500004575000045750000457500004575000045750000457500004575000045750000457500004575000045750000457500004575000045750000457500009B
:40458000457500004575000045750000457500004575000045750000457500004575000045750000457500004575000045750000457500004575000045750000457500005B
:4045C000457500004575000045750000457500004575000045750000457500004575000045750000457500004575000045750000457500004575000045750000457500001B
:4046000025750000EF74000045750000454807F091FB07F01DFB444B00221A70404B01221A70424B14221A7002F08CBF06F0CCFF0346082B71D13E4B1B78DAB23C4B93F86E
:404640005C30DBB21046194604F0BEF8322005F003FE384B4D221A70364B55225A70354B58229A70334B4822DA70324B6F221A71304B6C225A712F4B61229A712D4B2A22CD
:40468000DA7106F015FA002387F82F300BE097F82F30284AD35C184606F048FA97F82F30013387F82F3097F82F30072BEFD9502005F0D2FD002387F82F302AE097F82F3084
:4046C0001B4A13449B78DBB2002B10D197F82F30174A13449B7EDBB2002B08D197F82F30134A134493F83230DBB2002B0CD007F033FB07F0BDFA0A4B0D221A700220632158
:4047000005F0ACF806F0A8FF97F82F30013387F82F3097F82F300B2BD0D902F013BF00BF2684FF1FF9750000E482FF1F4D81FF1F7882FF1F8484FF1F06F046FF0346082B58
:4047400040F04785A04B1B78DBB2AA2B40F03F859D4B9B79DBB2C32B40F039859A4BDB79DBB23C2B40F03385984B00221A70984B1B78DAB2974B1B78DBB29A4280F0BD80D3
:40478000914BDB78DBB2092B32D8914B1B78DBB20133DAB28E4B1A708D4B1B78DBB21A46894BDB78D9B28C4B9954874BDB78DBB23033D9B2894B1B889DB2854B1B78DBB2BC
:4047C0009BB2874A128892B2013292B202FB03F39AB2844B1B889BB213449CB2804B1B889BB2DBB2009302202A46234605F082F8754BDB78DBB20A2B3CD17B4B1B78DBB296
:40480000012B0AD1724B1B78DBB2012B05D1724B5B78DBB2002B00D12CE06D4B1B78DBB20133DAB26A4B1A70694B1B78DBB21A46694B00219954694B1B889DB2644B1B78B8
:40484000DBB29BB2664A128892B2013292B202FB03F39AB2634B1B889BB213449CB2604B1B889BB2DBB20093022030212A46234605F040F8544BDB78DBB2512B3DD1544BFB
:404880001B78DBB2002B38D0584B1B78DBB2002B33D14F4B1B78DBB20133DAB24C4B1A704B4B1B78DBB21A46514B1B78D9B24A4B99544F4B1B78D9B2484B1B889DB2444BFA
:4048C0001B78DBB29BB2464A128892B2013292B202FB03F39AB2434B1B889BB213449CB23F4B1B889BB2DBB2009302202A46234605F000F83D4B01221A70334BDB78DBB2EF
:404900000B2B40F0B780324B1B78DBB2002B75D1354B1B78DBB2013B072B00F2AB8001A252F823F0454900005549000063490000794900008F490000A5490000754A000082
:40494000B54900000220052104F088FF294B04221A7037E0274B00221A70274B01225A7030E00220002104F079FF224B00221A70214B01225A7025E00220002104F06EFFE4
:404980001C4B00221A701C4B01225A701AE00220002104F063FF174B00221A70164B01225A700FE0134B10221A7002205F2104F055FF07E00F4B10221A7002205F2104F01B
:4049C0004DFF00BF56E000BF548FFF1FE482FF1FD086FF1F6B86FF1F6487FF1F6885FF1F2884FF1F0286FF1F4C83FF1F2B84FF1F5183FF1F2684FF1F7882FF1FA74B1B880A
:404A00009DB2A74B1B78DBB29BB2A64A128892B2013292B202FB03F39AB2A34B1B889BB213449CB29F4B1B889BB2DBB20093022020212A46234604F05DFF994B1B78DBB237
:404A40001A469A4B9B5CDAB2994B1B78DBB29A4202D1984B00221A70914B1B78DBB21A46924B002199548E4B1B78DBB2013BDAB28B4B1A70904BDB78DBB20C2B40F0A78378
:404A80008E4B1B78DBB2013B072B00F2A08301A252F823F0B54A00001B4C0000934C0000434D00009D4D00005B4E00008F4E000079500000002387F82F300CE097F82F3091
:404AC00007F130021344002203F82C2C97F82F30013387F82F3097F82F30072BEED9704B1B78DBB2002B00F097806D4B1B78DBB21A466E4B9B5CDBB22C2B00F08D800123DF
:404B000087F82F3028E097F82F30684AD35CDBB22C2B0FD097F82F30013B97F82F2063498A5CD2B23032D2B207F130010B4403F82C2C0CE097F82F30013B97F82F205B4996
:404B40008A5CD2B207F130010B4403F82C2C97F82F30013387F82F30514B1B78DBB297F82F209A42CFD93B1D184607F0BDFFC7E90801534BDB7E012B09D1D7E908014FF0BB
:404B80000002504B07F09CFF0346002B1AD14C4BDB7E022B40D1D7E908014FF000024A4B07F084FF0346002B00D110E3D7E908014FF000024FF0000307F08CFF0346002BA6
:404BC00000D104E3364B1B7887F82F3015E097F82F30334A1278D2B2114697F82F208A1A013232498A5CD1B2354A13440A46DA7697F82F30013B87F82F3097F82F30002B16
:404C0000E5D1324B05221A70314B02225A700220072104F023FEDAE2D9E2002387F82F300BE097F82F30264A1344002283F8332097F82F30013387F82F3097F82F300A2B9C
:404C4000EFD9174B1B7887F82F3016E097F82F30134A1278D2B2114697F82F208A1A013212498A5CD1B2164A13440A4683F8332097F82F30013B87F82F3097F82F30002B84
:404C8000E4D1124B04221A700220052104F0E6FD9DE2034B1B7887F82F3034E06885FF1FD086FF1F2884FF1F0286FF1F6487FF1F5183FF1F2B84FF1F548FFF1F4C83FF1F1C
:404CC0008085FF1F0000894000208C402684FF1F7882FF1F97F82F30B84A1278D2B2114697F82F208A1A0132B5498A5CD2B23032D1B2B44A13440A4683F8492097F82F302E
:404D0000013B87F82F3097F82F30002BE2D1AE4B02221A700220052104F0A0FDA74B00221A70AA4B04221A70A94B0A221A70A94B02221A80A84B03221A80A84B01221A800C
:404D400045E29E4B1B7887F82F3018E097F82F309A4A1278D2B2114697F82F208A1A013297498A5CD2B23032D1B2964A13440A4683F8542097F82F30013B87F82F3097F892
:404D80002F30002BE2D1904B66221A700220392104F064FD924B10225A7018E2874B1B7887F82F3018E097F82F30844A1278D2B2114697F82F208A1A013281498A5CD2B2E0
:404DC0003032D1B27F4A13440A4683F8612097F82F30013B87F82F3097F82F30002BE2D1804B1A78774B93F865309A4223D17D4B5A78744B93F864309A421CD1794B9A7868
:404E0000704B93F863309A4215D1764BDA786D4B93F862309A420ED16B4B10221A700220262104F01BFDC82005F016FA02205F2104F014FDCBE1644B00221A700220272148
:404E400004F00CFD664B01225A70C82005F004FA0220002104F002FDB9E1584B1B78DBB21A46574B9B5CDBB218461E2107F0ACF802203C2104F0F2FCC82005F0EDF9524BAA
:404E800010221A7002205F2104F0E8FC9FE14E4B12221A700220732104F0E0FC524B1B78013B032B00F2B98001A252F823F000BFC14E0000074F00004D4F0000934F0000F8
:404EC0003F4B5B78DBB23033DAB2484B1A70474B1B78322B08D0332B0BD0312B0ED1404B012283F859200DE03D4B012283F85A2008E03B4B012283F85B2003E03C4B0022AC
:404F00001A7000BF89E02E4B5B78DBB23033DAB2364B5A70354B5B78322B08D0332B0BD0312B0ED12E4B022283F859200DE02C4B022283F85A2008E0294B022283F85B202C
:404F400003E02C4B00221A7000BF66E01C4B5B78DBB23033DAB2254B9A70244B9B78322B08D0332B0BD0312B0ED11D4B032283F859200DE01A4B032283F85A2008E0184B93
:404F8000032283F85B2003E01B4B00221A7000BF43E00B4B5B78DBB23033DAB2134BDA70124BDB78322B29D0332B2CD0312B2FD10B4B042283F859202EE000BFD086FF1F45
:404FC0006487FF1F8085FF1F2684FF1F4C83FF1F6B86FF1F0286FF1F6885FF1F2884FF1F7882FF1F4481FF1F8D87FF1FE082FF1F4881FF1F4981FF1F4A81FF1FA24B0422CE
:4050000083F85A2008E0A04B042283F85B2003E09E4B00221A7000BF00BF9D4B1A7801230093022011460B222C2304F063FC984B5A78012300930220114610222C2304F0C3
:4050400059FC934B9A78012300930220114614222C2304F04FFC8E4BDA78012300930220114619222C2304F045FC874B01225A70C82005F0F1F8AAE0012387F82F3009E0E3
:4050800097F82F30834A0021D15497F82F30013387F82F3097F82F30042BF1D97D4B04221A707D4B1B7887F82F3015E097F82F30794A1278D2B2114697F82F208A1A013297
:4050C00076498A5CD2B23032D1B2724AD15497F82F30013B87F82F3097F82F30002BE5D16C4B5B78DBB22F2B17D96A4B9B78DBB22F2B12D8674BDB78DBB22F2B0DD8654B6F
:405100001B79DBB22F2B08D8624B30229A70614B3022DA705F4B30221A715E4B5B78DBB22F2B14D95B4B9B78DBB22F2B0FD9594BDB78DBB22F2B0AD8564B1B79DBB22F2B88
:4051400005D8544B3022DA70524B30221A71514B5B78DBB22F2B11D94E4B9B78DBB22F2B0CD94C4BDB78DBB22F2B07D9494B1B79DBB22F2B02D8474B30221A71082387F832
:405180002F3011E097F82F30083B424AD35CDAB297F82F309BB21046194606F015FF97F82F30013387F82F3097F82F300C2BE9D902203C2104F052FBC82005F04DF8384BE1
:4051C00010221A7002205F2104F048FB00BF06F043FA344B1B78DBB21D2B24D9324B93F84830002B1FD1314B1B78DBB2022B1AD1294B00221A702E4B07221A702D4B04220B
:405200001A802D4B03221A802C4B01221A8002200A2104F023FB224B0D221A70214B00221A7002F08FB902F08DB9022004F0C6FB0346012B40F08D800220332104F01EFC4D
:405240000346002B00F08580002387F82F300FE097F82F40022004F097FC03461A46124B234483F8232097F82F30013387F82F3097F82F30072BEBD9114B00221A700023F4
:4052800087F82F3033E000BF7882FF1F4B81FF1FE082FF1F5085FF1FD086FF1F6487FF1F2684FF1FE482FF1F8085FF1F4C83FF1F6B86FF1F0286FF1F6885FF1F2884FF1F66
:4052C0004983FF1FBE4B197897F82F30BD4A134493F823300846194604F0B0FC03461A46B74B1A7097F82F30013387F82F3097F82F30062BE6D9B34B93F82A20B04B1B783F
:405300009A4226D10220132104F0A8FAAE4B00221A70AE4806F00EFD06F09AFCAC4B65221A70AC4B02221A80AA4B0E225A80AA4B00221A70A94B02221A70A94B0A221A70DD
:40534000A84B02221A80A84B03221A80A74B01221A8006F039F90346082B1ED1A44B1B78DBB2AA2B15D1A24B9B79DBB2C32B10D19F4BDB79DBB23C2B0BD19D4BDB78DBB28B
:405380003B2B06D1924B00221A709A4B01225A7000BF06F061F902F0D5B802F0D3B806F013F90346082B40F0E580914B1B78DBB2AA2B40F0DB808E4B9B79DBB2C32B40F043
:4053C000D5808B4BDB79DBB23C2B40F0CF80884BDB78DBB2102B4BD0102B02DC0F2B07D0C4E03B2B00F0B880432B00F08180BDE0002387F82F300AE097F82F30714A13446F
:405400000022DA7697F82F30013387F82F3097F82F30072BF0D96E4B02221A706E4B00221A706E4B01221A70734B2C221A70734B5B78DAB26A4B1A70624B0122DA76704B12
:4054400000221A700220062104F008FA654B04221A80654B03221A80644B01221A8001230093022024210322042304F043FA7DE0002387F82F300AE097F82F30514A134433
:405480000022DA7697F82F30013387F82F3097F82F30072BF0D94E4B02221A704E4B00221A704E4B01221A70534B2C221A70534B5B78DAB24A4B1A70424B0222DA76504B91
:4054C00000221A7002200D2104F0C8F9454B04221A80454B03221A80444B01221A8001230093022047210322042304F003FA3DE0002387F82F300AE097F82F30314A1344CA
:405500000022DA7697F82F30013387F82F3097F82F30072BF0D92B4B0322DA76052387F82F300AE097F82F30264A13440922DA7697F82F30013387F82F3097F82F30072BE5
:40554000F0D9234B07221A700220072104F086F9284B02225A7009E01D4B00221A70294B00221A70234B01225A7000BF06F074F801F0E8BF01F0E6BF322004F06DFE06F0B5
:4055800023F80346082B3FD1194B1B78DBB2AA2B11D1174B9B79DBB2C32B0CD1144BDB79DBB23C2B07D1124BDB78DBB27E2B02D1074B00221A7006F04FF801F0C3BF00BF96
:4055C0004983FF1F8085FF1FE482FF1FF97500002684FF1F8487FF1FD086FF1F4C83FF1F6B86FF1F0286FF1F6885FF1F2884FF1F548FFF1F7882FF1F5183FF1FFC82FF1F29
:405600002B84FF1F4A83FF1F604B1B78DBB2184602F058F8034687F82F3097F82F30072B06D15B4B07221A70322004F015FE2CE097F82F30002B0ED1322004F00DFE534B84
:405640001B78DAB207F11403104601211A46022302F03CFB19E097F82F300C2B04D102205521FAF7C3FE10E097F82F300B2B03D1474B0C221A7008E097F82F300A2B04D187
:40568000434B0C221A7001F05DBF01F05BBF0A2004F0E2FD05F098FF0346082B20D13D4B1B78DBB2AA2B17D13A4B9B79DBB2C32B12D1384BDB79DBB23C2B0DD1354BDB78BE
:4056C000DBB27E2B08D1324B00221A702F4B01225A70314B00221A7005F0BEFF01F032BF2A4B1B78DBB2184602F088F803461A462A4B9A76294B9B7E002B07D0244B082294
:405700001A700A2004F0A8FD01F01CBF01F01ABF0A2004F0A1FD1D4B1B78DBB2184601F0D1FF0346072B1AD10220392104F096F806F012FB06F09CFA154B09221A70184BB8
:4057400000221A80114B04225A70164B00221A70154806F0EFFA06F07BFA01F0F3BE01F0F1BE0D4B1B78012B00F05C820F4B4D221A700E4B55225A700C4B58229A700B4B28
:405780003022DA70002387F82F304CE07882FF1F2684FF1F548FFF1F4A83FF1F8085FF1FF486FF1FE482FF1FF97500008484FF1F97F82F305B08DBB21A46B44B134493F862
:4057C00023301B0987F82E3097F82F3003F00103DBB2002B0CD197F82F305B08DBB21A46AA4B134493F8233003F00F0387F82E3097F82F30043397F82E203032D1B2A44ABC
:40580000D15497F82E30092B08D997F82F30043397F82E203732D1B29D4AD15497F82F30013387F82F3097F82F300F2BC0D9974B9B7E013B974A134493F85930DBB2303313
:40584000DAB2934B1A75944B1B79DAB2904B5A75914BDB78DAB28E4B9A758F4B9B78DAB28B4BDA758C4B5B78DAB2894B1A768B4B1B78DBB2002B59D1844B9B7E5A1E854932
:4058800013469B0013440B444C339B78DBB203F00F03DBB23033DAB27D4B5A767B4B9B7E5A1E7C4913469B0013440B444B339B78DBB203F00F03DBB23033DAB2744B9A76F2
:4058C000724B9B7E5A1E734913469B0013440B444A339B78DBB203F00F03DBB23033DAB26B4BDA76694B9B7E5A1E6A4913469B0013440B4449339B78DBB203F00F03DBB220
:405900003033DAB2624B1A77604B9B7E5A1E614913469B0013440B4448339B78DBB203F00F03DBB23033DAB2594B5A775B4B1B78DBB2012B4AD1554B9B7E5A1E5549134674
:405940009B0013440B444B339B78DBB203F00F03DBB23033DAB24E4B5A764C4B9B7E5A1E4C4913469B0013440B444A339B78DBB203F00F03DBB23033DAB2454B9A76434BBB
:405980009B7E5A1E434913469B0013440B4449339B78DBB203F00F03DBB23033DAB23C4BDA763A4B9B7E5A1E3A4913469B0013440B4448339B78DBB203F00F03DBB2303379
:4059C000DAB2334B1A77324B30225A772F4BDB7E3033DAB22E4B9A772C4B93F822202C4BDA772A4B93F82230092B06D8274B93F822303033DAB2264BDA77244B93F8212075
:405A0000234B83F82020214B93F82130092B07D81E4B93F821303033DAB21D4B83F820201A4B93F820201A4B83F82120174B93F82030092B07D8154B93F820303033DAB2C0
:405A4000134B83F82120114BDA7F114B83F822200E4BDB7F092B06D80C4BDB7F3033DAB20B4B83F82220094B9A7F094B83F82320064B9B7F092B06D8044B9B7F3033DAB272
:405A8000034B83F82320014B5A7F09E08085FF1F8484FF1F7882FF1F5085FF1F6685FF1FB44B83F82420B44B5B7F092B06D8B24B5B7F3033DAB2AF4B83F82420AE4B1A7FB5
:405AC000AC4B83F82520AC4B1B7F092B06D8AA4B1B7F3033DAB2A74B83F82520002387F82F3012E097F82F30263397F82F200132A1490A4492F833203032D1B29D4AD154CB
:405B000097F82F30013387F82F3097F82F30062BE8D9984B322283F82D20964B2A2283F82E2004F0C5FF002387F82F300BE097F82F30904AD35C184604F0F8FF97F82F30BE
:405B4000013387F82F3097F82F302E2BEFD9FA2004F082FB04F062FF0346022B1DD1874B1B78DBB24F2B18D1844B5B78DBB24B2B13D1834B02221A80824B02225A70824BCE
:405B80000A221A7006F0E8F806F072F87F4B00221A7004F08DFF01F0D5BC7C4B1B78DBB20F2B0CD906F0D8F806F062F8774B00221A70754B00221A70724B01225A7005F0EC
:405BC00003FD0346082B40F0D380714B1B78DBB2AA2B20D16E4B9B79DBB2C32B1BD16C4BDB79DBB23C2B16D1694BDB78DBB27E2B11D10220002103F031FE06F0ADF806F0D5
:405C000037F8624B00221A705F4B00221A705D4B01225A7000BF642004F01EFB05F01CFD01F090BC544BDB7E022B07D0032B09D0012B43D1022387F82C303FE0012387F851
:405C40002C303BE0022387F82C30524B5B78DBB2072B1BD1484B0722DA76474B00221A77454B00225A77444B00229A77424B0922DA77414B092283F820203F4B092283F851
:405C800021203D4B092283F8222016E03A4B0622DA76394B00221A77374B00225A77364B00229A77344B0922DA77334B092283F82020314B092283F8212000BF012387F8BC
:405CC0002F3019E097F82F302B4A1344DB7E2C2B0DD097F82F3097F82F2027490A44D27E02F00F02D1B2244A13440A46DA7697F82F30013387F82F3097F82F30082BE1D965
:405D0000204B1B78DBB203F00F03D9B21A4B9A7E97F82C30084611461F4A01F0D7FF0346012B1AD1322004F097FA164B1B78DBB2DBB203F00F03DBB243F01003DBB2DBB2D4
:405D4000184604F099FC0F4B06225A700E4B0B221A700220082103F081FD05F0FDFF05F087FF0A4B00221A7004F0A2FE01F0EABB01F0E8BB8484FF1F8085FF1F5889FF1FB1
:405D8000F486FF1F7882FF1F2684FF1FE482FF1F548FFF1FFC82FF1F9B85FF1FA04B1B88012B16D99E4B1B8801339AB29C4B1A80012004F051FA9A4B1B8844F61F6293425E
:405DC00007D9974B00221A80964B09221A7001F0B9BB01F0B7BB944B01221A70322004F03BFA924B1B78DBB2184601F06BFC03460A2B3DD00B2B03D0062B71D001F0A2BBB9
:405E0000642004F029FA002387F82F3010E097F82F30874A13440022DA7197F82F30844A134400221A7497F82F30013387F82F3097F82F30082BEAD97C4B1B78DBB2184667
:405E400001F09AFD0346012B06D1764B0C221A700220392103F002FD744B1B78DAB2734B93F85C30DBB21046194602F0ADFC63E0642004F0F1F9002387F82F3010E097F8B2
:405E80002F306B4A13440022DA7197F82F30684A134400221A7497F82F30013387F82F3097F82F30082BEAD9604B1B78DBB2184601F062FD0346012B06D15A4B0C221A705D
:405EC0000220392103F0CAFC584B1B78DAB2574B93F85C30DBB21046194602F075FC2BE0002387F82F3010E097F82F30504A13440022DA7197F82F304D4A134400221A7479
:405F000097F82F30013387F82F3097F82F30082BEAD9444B0C221A700220392103F09EFC424B1B78DAB2414B93F85C30DBB21046194602F049FC00BF01F004BB3D4B4D22FF
:405F40001A703C4B55225A703A4B58229A70394B3122DA70374B32221A71354B5B7E013B324A134493F85930DBB23033DAB2314B5A712F4B5B7D3033DAB22E4B9A712C4BC9
:405F80001B7D3033DAB22B4BDA71294BDB7C3033DAB2284B1A72274B2C225A72244B9B7C3033DAB2234B9A72214B5B7C3033DAB2204BDA721E4B1B7C3033DAB21D4B1A7398
:405FC0001D4B5B78DBB2072B38D1194B9B7B3033DAB2184B5A73164B5B7B3033DAB2154B9A73134B1B7B3033DAB2124BDA73104BDB7A3033DAB20F4B1A740D4B9B7A30338E
:40600000DAB20C4B5A740A4B5B7A3033DAB2094B9A74074B1B7A3033DAB2064BDA7437E0F486FF1F2684FF1FCD86FF1F7882FF1F8085FF1F8484FF1FFC82FF1F424B5B7B77
:406040003033DAB2414B5A733F4B1B7B3033DAB23E4B9A733C4BDB7A3033DAB23B4BDA73394B9B7A3033DAB2384B1A74364B5B7A3033DAB2354B5A74334B1B7A3033DAB267
:40608000324B9A74304BDB793033DAB22F4BDA742F4B1B78DBB2002B1DD12B4B9B793033DAB22A4B1A75284B5B793033DAB2274B5A75254B1B793033DAB2244B9A75224B4A
:4060C000DB783033DAB2214BDA751F4B9B783033DAB21E4B1A761E4B1B78DBB2012B1AD1194B5B793033DAB2184B1A75164B1B793033DAB2154B5A75134BDB783033DAB2D2
:40610000124B9A75104B9B783033DAB20F4BDA750E4B30221A760F4B1B79DAB20B4B5A760C4BDB78DAB2094B9A760A4B9B78DAB2064BDA76074B5B78DAB2044B1A7700232F
:4061400087F82F3043E000BF8085FF1F8484FF1F6685FF1F5085FF1F97F82F305B08DBB21A46974B134493F823301B0987F82E3097F82F3003F00103DBB2002B0CD197F8BB
:406180002F305B08DBB21A468D4B134493F8233003F00F0387F82E3097F82F301D3397F82E203032D1B2874AD15497F82E30092B08D997F82F301D3397F82E203732D1B242
:4061C000804AD15497F82F30013387F82F3097F82F300F2BC0D97C4B1B8801339AB27A4B1A80794B1B88794AA2FB03235B0B9BB2DBB23033DAB2764B5A71734B1B88734AE0
:40620000A2FB0312520B42F2107101FB02F29B1A9BB2704AA2FB03239B099BB2DBB23033DAB26B4B1A71684B1B88684AA2FB0312520B42F2107101FB02F29B1A9BB2654A10
:40624000A2FB031292094FF47A7101FB02F29B1A9BB2614AA2FB03235B099BB2DBB23033DAB25B4BDA70584B1B88584AA2FB0312520B42F2107101FB02F29B1A9BB2554AE9
:40628000A2FB031292094FF47A7101FB02F29B1A9BB2514AA2FB03125209642101FB02F29B1A9BB24D4AA2FB0323DB089BB2DBB23033DAB2464B9A70434B1B88434AA2FB56
:4062C0000312520B42F2107101FB02F29B1A9BB2404AA2FB031292094FF47A7101FB02F29B1A9BB23C4AA2FB03125209642101FB02F29B1A9AB2394BA3FB0213D9080B461C
:406300009B000B445B00D31A9BB2DBB23033DAB22F4B5A70012387F82F300EE097F82F302C3397F82F202A498A5CD1B2254AD15497F82F30013387F82F3097F82F30072B73
:40634000ECD9012387F82F3010E097F82F30204AD35CDAB297F82F309BB21046194605F033FE97F82F30013387F82F3097F82F30052BEAD9002387F82F3012E097F82F307B
:40638000343397F82F2001320D490A4492F833203032D1B20B4AD15497F82F30013387F82F3097F82F30062BE8D9064B2A2283F83B2004F07DFB002387F82F301CE000BF0A
:4063C0008085FF1F8484FF1FDC82FF1F5917B7D15885FF1FD34D62101F85EB51CDCCCCCC97F82F30C14AD35C184604F09FFB97F82F30013387F82F3097F82F303B2BEFD912
:406400004FF4FA6003F028FFB94B02225A70B94B66221A70B84B00221A70B54B01225A700220002103F01AFAB24B00221A7004F03FFBB24B5B7E5A1EAD4913469B00134451
:406440000B4448339B78DBB23B73AC4B5B7E5A1EA74913469B0013440B4449339B78DBB27B73A64B5B7E5A1EA14913469B0013440B444A339B78DBB2BB73A04B5B7E5A1EDB
:406480009B4913469B0013440B444B339B78DBB2FB739A4B5B7E5A1E954913469B0013440B444C339B78DBB23B74914B1B78D9B2924B5B7E07F10C02084611461A4602F0A9
:4064C00045F801F03FB8182387F82E30002387F82F3018E097F82F30894AD25C97F82E309CB201230093022011460122234603F001FA97F82E30023387F82E3097F82F30A5
:40650000013387F82F3097F82F300C2BE2D9002387F82E3005F058F80346082B40F06D82784B1B78DBB2AA2B40F06082754B9B79DBB2C32B40F05A82724BDB79DBB23C2B5F
:4065400040F05482704B14221A706E4BDB78DBB2592B00F02C81592B03DC452B00F01F8144E25C2B03D07E2B00F038823EE2604B02225A70654B00221A705C4B4D221A70F5
:406580005A4B55225A70594B58229A70574B3522DA70042387F82D30002387F82F3018E097F82D3097F82F2051490A449278D2B202F00F02D2B23032D1B24C4AD15497F898
:4065C0002D30013387F82D3097F82F30013387F82F3097F82F300B2BE2D90C2387F82F3018E097F82D3097F82F2041490A449278D2B202F00F02D2B23032D1B23B4AD15404
:4066000097F82D30013387F82D3097F82F30013387F82F3097F82F30172BE2D9002387F82F3018E097F82D3097F82F2030490A44927ED2B202F00F02D2B23032D1B22B4A74
:40664000D15497F82D30013387F82D3097F82F30013387F82F3097F82F300B2BE2D90C2387F82F3018E097F82D3097F82F2020490A44927ED2B202F00F02D2B23032D1B294
:406680001A4AD15497F82D30013387F82D3097F82F30013387F82F3097F82F30172BE2D9002387F82F3019E097F82D3097F82F200F490A4492F83220D2B202F00F02D2B219
:4066C0003032D1B2094AD15497F82D30013387F82D3097F82F30013387F82F3097F82F300B2BE1D90C2387F82F302BE08484FF1F7882FF1F2684FF1FCD86FF1F8085FF1FB1
:406700005081FF1F548FFF1F4D81FF1F4A83FF1F97F82D3097F82F20B9490A4492F83220D2B202F00F02D2B23032D1B2B54AD15497F82D30013387F82D3097F82F3001336A
:4067400087F82F3097F82F30172BE1D9AD4B322283F84B20AB4B2A2283F84C2004F0A8F9002387F82F300BE097F82F30A54AD35C184604F0DBF997F82F30013387F82F3043
:4067800097F82F304C2BEFD9FA2003F065FD9E4B13221A700220492103F060F826E10220722103F05BF8984B0F221A701EE10220392103F053F8934B4D221A70914B55223B
:4067C0005A70904B58229A708E4B3222DA708C4B1B78DAB28A4B93F85C30DBB21046194601F0F2FF322003F037FD042387F82D30002387F82F3018E097F82D3097F82F20B4
:406800007F490A449278D2B202F00F02D2B23032D1B27C4AD15497F82D30013387F82D3097F82F30013387F82F3097F82F300B2BE2D90C2387F82F3018E097F82D3097F802
:406840002F206F490A449278D2B202F00F02D2B23032D1B26B4AD15497F82D30013387F82D3097F82F30013387F82F3097F82F30172BE2D9002387F82F3018E097F82D3023
:4068800097F82F205E490A44927ED2B202F00F02D2B23032D1B25B4AD15497F82D30013387F82D3097F82F30013387F82F3097F82F300B2BE2D90C2387F82F3018E097F8CC
:4068C0002D3097F82F204E490A44927ED2B202F00F02D2B23032D1B24A4AD15497F82D30013387F82D3097F82F30013387F82F3097F82F30172BE2D9002387F82F3019E0DE
:4069000097F82D3097F82F203D490A4492F83220D2B202F00F02D2B23032D1B2394AD15497F82D30013387F82D3097F82F30013387F82F3097F82F300B2BE1D90C2387F8BD
:406940002F3019E097F82D3097F82F202C490A4492F83220D2B202F00F02D2B23032D1B2284AD15497F82D30013387F82D3097F82F30013387F82F3097F82F30172BE1D9E9
:40698000204B322283F84B201E4B2A2283F84C2004F08EF8002387F82F300BE097F82F30184AD35C184604F0C1F897F82F30013387F82F3097F82F304C2BEFD9FA2003F06C
:4069C0004BFC0220002102F049FF0F4B00221A700B4B01225A7004F06BF807E00220002102F03CFF084B00221A7000BF642003F033FC04F031FE00F0A5BD00F0A3BD00BFF4
:406A00007882FF1F8484FF1F2684FF1F04F0DCFD0346082B40F00881B04B1B78DBB2AA2B40F0FE80AD4B9B79DBB2C32B40F0F880AA4BDB79DBB23C2B40F0F280A84B1B781C
:406A4000DAB2A84B1B78DBB29A426CD2A34BDB78DBB2092B33D8A24B1B78DBB201339F4AD278D2B23032D1B29F4A13440A4683F854209E4B1B889DB2994B1B78DBB29BB2C8
:406A80009B4A128892B2013292B202FB03F39AB2984B1B889BB213449CB2954B1B889BB2DBB2009302202A212A46234602F022FF8B4B1B78DBB20133DAB2894B1A70874BB6
:406AC000DB78DBB20A2B2ED1854B1B78DBB20133854A1344302283F85420844B1B889DB27F4B1B78DBB29BB2814A128892B2013292B202FB03F39AB27E4B1B889BB2134490
:406B00009CB27B4B1B889BB2DBB2009302202A212A46234602F0EEFE714B1B78DBB20133DAB26F4B1A706D4BDB78DBB20B2B2ED16C4B1B78DBB2002B03D16F4B00221A7024
:406B400025E0674B1B78DBB2013BDAB2644B1A70664B1B889DB2624B1B78DBB29BB2644A128892B2013292B202FB03F39AB2614B1B889BB213449CB25D4B1B889BB2DBB2D8
:406B80000093022020212A46234602F0B3FE534BDB78DBB20C2B43D1514B1B78DBB2002B3ED04F4B1B78DAB24F4B83F85420002387F82E304C4B93F85430042B2DD101236C
:406BC00087F82F3015E097F82F30474A134493F8542097F82F304949CB5C9A4204D197F82E30013387F82E3097F82F30013387F82F3097F82F30042BE5D997F82E30042BA0
:406C000007D13D4B0F221A7002205D2102F026FE06E0394B00221A7002E0374B00221A7004F01AFD00F08EBC00F08CBC04F0CCFC0346082B40F08D80284B1B78DBB2AA2B03
:406C400040F08780254B9B79DBB2C32B40F08180224BDB79DBB23C2B7BD1204BDB78DBB2B92B05D0BA2B4FD07E2B6AD000F06ABC234B4D221A70224B55225A70204B5822B1
:406C80009A701F4B3322DA701D4B32221A711C4B2A225A7103F00CFF002387F82F300BE097F82F30164AD35C184603F03FFF97F82F30013387F82F3097F82F30052BEFD920
:406CC000962003F0C9FA0220002102F0C7FD0A4B00221A700B4B01225A703AE0548FFF1FD086FF1F6B86FF1F8085FF1F6885FF1F2884FF1F0286FF1F2684FF1F2881FF1F20
:406D00008484FF1F7882FF1FAA4B02221A700220252102F0A3FDA84B05221A70A74B00221A70A74B2C221A70A64B04221A70A64B04221A80A54B03221A80A54B01221A80BE
:406D400007E00220002102F089FD9A4B00221A7000BFF7E304F038FC0346082B71D19D4B1B78DBB2AA2B6CD19A4B9B79DBB2C32B67D1984BDB79DBB23C2B62D1954BDB780A
:406D8000DBB2802B13D0802B04DC7E2B51D07F2B05D0D7E3812B27D0C22B2DD0D2E3854B12221A700220732102F058FD49E0814B02221A700220642102F050FD7E4B0622E3
:406DC0001A707E4B00221A707D4B2C221A707D4B01221A707C4B04221A807C4B03221A807B4B01221A802CE0724B11221A7002206D2102F033FD24E06E4B02221A7002200A
:406E0000842102F02BFD6C4B08221A706B4B00221A706B4B2C221A706A4B04221A706A4B04221A80694B03221A80694B01221A8007E00220002102F011FD5E4B00221A70FB
:406E400000BF7FE304F0C0FB0346082B46D1614B1B78DBB2AA2B41D15E4B9B79DBB2C32B3CD15C4BDB79DBB23C2B37D1594BDB78DBB28F2B04D0902B15D07E2B26D061E32B
:406E80000020172105F0A0F802203C2102F0E6FCC82003F0E1F9474B10221A7002205F2102F0DCFC1AE00120172105F08DF802203C2102F0D3FCC82003F0CEF93D4B1022C2
:406EC0001A7002205F2102F0C9FC07E0394B10221A7002205F2102F0C1FC00BF32E304F073FB0346082B40F001823A4B1B78DBB2AA2B40F0FB81374B9B79DBB2C32B40F06B
:406F0000F581344BDB79DBB23C2B40F0EF81314BDB78DBB2BC2B2CD0BC2B05DC7E2B00F09D80BB2B05D00DE3BD2B57D0BE2B75D008E3294B01221A701E4B02221A7002208A
:406F4000842102F08BFC1C4B07221A701B4B00221A701B4B2C221A701A4B01221A701A4B04221A80194B03221A80194B01221A80BCE1194B02221A700E4B02221A70022036
:406F8000842102F06BFC0C4B07221A700B4B00221A700B4B2C221A700A4B01221A700A4B04221A80094B03221A80094B01221A809CE100BF2684FF1F4C83FF1FD086FF1FF9
:406FC0005183FF1F6B86FF1F0286FF1F6885FF1F2884FF1F548FFF1F8D87FF1FC44B03221A70C44B02221A700220842102F036FCC14B07221A70C14B00221A70C04B2C22AC
:407000001A70C04B01221A70BF4B04221A80BF4B03221A80BE4B01221A8067E1B44B04221A70B44B02221A700220842102F016FCB14B07221A70B14B00221A70B04B2C22A6
:407040001A70B04B01221A70AF4B04221A80AF4B03221A80AE4B01221A8047E1AD4B4D221A70AC4B55225A70AA4B58229A70A94B3422DA70042387F82E30002387F82F3052
:407080003CE097F82F30A44A134493F85930DBB2013B032B22D801A252F823F0AD700000B9700000C5700000D170000097F82E30984A4421D15417E097F82E30954A432140
:4070C000D15411E097F82E30924A4521D1540BE097F82E308F4A5321D15405E097F82E308C4A3021D15400BF97F82E30013387F82E3097F82F30013387F82F3097F82F3013
:40710000022BBED9854B1B78002B26D1002387F82E30042387F82F301BE097F82F307D4AD35C442B0BD197F82F307A4A3021D15497F82E30784A1344002283F8592097F804
:407140002E30013387F82E3097F82F30013387F82F3097F82F30062BDFD9714B1B78002B26D1002387F82E30042387F82F301BE097F82F30674AD35C432B0BD197F82F3052
:40718000644A3021D15497F82E30634A1344002283F8592097F82E30013387F82E3097F82F30013387F82F3097F82F30062BDFD95C4B1B78002B26D1002387F82E3004234C
:4071C00087F82F301BE097F82F30524AD35C452B0BD197F82F304F4A3021D15497F82E304D4A1344002283F8592097F82E30013387F82E3097F82F30013387F82F3097F836
:407200002F30062BDFD9484B1B78002B26D1002387F82E30042387F82F301BE097F82F303C4AD35C532B0BD197F82F30394A3021D15497F82E30384A1344002283F85920FE
